:020000040800F2
:10000000005000209D0A0008B9090008C109000835
:10001000C9090008D1090008D9090008000000003A
:10002000000000000000000000000000E1090008DE
:10003000ED09000800000000F9090008050A0008A1
:10004000E50A0008E50A0008E50A0008E50A0008D4
:10005000E50A0008E50A0008E50A0008E50A0008C4
:10006000E50A0008E50A0008E50A0008E50A0008B4
:10007000E50A0008E50A0008E50A0008E50A0008A4
:10008000E50A0008E50A0008110A0008E50A000868
:10009000E50A0008E50A0008E50A0008E50A000884
:1000A000E50A0008E50A0008E50A0008E50A000874
:1000B000E50A0008E50A0008E50A0008E50A000864
:1000C000E50A0008E50A0008E50A0008E50A000854
:1000D000E50A0008E50A0008E50A0008E50A000844
:1000E000E50A0008E50A0008E50A0008000000002B
:1000F0000000000000000000000000000000000000
:0C01000000000000000000005FF808F1A3
:10010C0010B5054C237833B9044B13B10448AFF345
:10011C0000800123237010BD5C0000200000000053
:10012C00DC2F000808B5034B1BB103490348AFF3A0
:10013C00008008BD0000000060000020DC2F0008DB
:10014C0080B483B000AF786002E07B68013B7B60D9
:10015C007B68002BF9D100BF00BF0C37BD4680BCBB
:10016C00704780B500AF4FF47A70FFF7E9FF00BF1E
:10017C0080BD000080B582B000AF0346FB71574BC9
:10018C0004225A61554B02225A61544B10225A6177
:10019C00524B20225A61514B40225A614F4B8022C4
:1001AC005A61FFF7DEFF4D4BDB684C4A43F002030C
:1001BC00D360FB7903F01003002B03D0474B1022C4
:1001CC001A6103E0454B4FF480121A61FB7903F07E
:1001DC002003002B03D0414B20221A6103E03F4B3C
:1001EC004FF400121A61FB7903F04003002B03D08B
:1001FC003A4B40221A6103E0384B4FF480021A61EB
:10020C0097F90730002B03DA344B80221A6103E094
:10021C00324B4FF400021A61FFF7A3FF2F4B02225F
:10022C005A612E4B10225A612C4B20225A612B4BB7
:10023C0040225A61294B80225A61FFF792FF274BCB
:10024C00DB68264A43F00203D360FB7903F0010319
:10025C00002B03D0214B10221A6103E01F4B4FF4EB
:10026C0080121A61FB7903F00203002B03D01B4BA5
:10027C0020221A6103E0194B4FF400121A61FB792A
:10028C0003F00403002B03D0144B40221A6103E04B
:10029C00124B4FF480021A61FB7903F00803002B18
:1002AC0003D00E4B80221A6103E00C4B4FF400027A
:1002BC001A61FFF756FF094B02225A61074B1022B5
:1002CC005A61064B20225A61044B40225A61034B5F
:1002DC0080225A6100BF0837BD4680BD000801402E
:1002EC0080B582B000AF0346FB71594BDB68584AAE
:1002FC0043F00403D360564B02225A61544B102234
:10030C005A61534B20225A61514B40225A61504B37
:10031C0080225A61FFF725FF4D4BDB684C4A43F0B6
:10032C000203D360FB7903F01003002B03D0484B7E
:10033C0010221A6103E0464B4FF480121A61FB79CC
:10034C0003F02003002B03D0414B20221A6103E061
:10035C003F4B4FF400121A61FB7903F04003002B62
:10036C0003D03B4B40221A6103E0394B4FF480021F
:10037C001A6197F90730002B03DA354B80221A618A
:10038C0003E0334B4FF400021A61FFF7EAFE304BE7
:10039C0002225A612E4B10225A612D4B20225A6197
:1003AC002B4B40225A612A4B80225A61FFF7D9FE0F
:1003BC00274BDB68264A43F00203D360FB7903F03A
:1003CC000103002B03D0224B10221A6103E0204BB7
:1003DC004FF480121A61FB7903F00203002B03D057
:1003EC001B4B20221A6103E0194B4FF400121A61C7
:1003FC00FB7903F00403002B03D0154B40221A6148
:10040C0003E0134B4FF480021A61FB7903F00803ED
:10041C00002B03D00E4B80221A6103E00C4B4FF4DF
:10042C0000021A61FFF79DFE094B02225A61084B2C
:10043C0010225A61064B20225A61054B40225A6108
:10044C00034B80225A6100BF0837BD4680BD00BFF8
:10045C000008014080B582B000AF786008E0FFF77B
:10046C0080FE7B685A1C7A601B781846FFF738FFB1
:10047C007B681B78002BF2D1FFF773FE00BF0837A7
:10048C00BD4680BD80B582B000AF0346FB710B4604
:10049C00BB7113467B71FA2000F082FB0220FFF740
:1004AC0069FE322000F07CFBFA79BB791343DAB297
:1004BC007B791343DBB243F02003DBB21846FFF722
:1004CC0059FE322000F06CFB0620FFF753FE322061
:1004DC0000F066FB0E20FFF74DFE322000F060FBB3
:1004EC000C20FFF747FE322000F05AFB0120FFF7EB
:1004FC0041FE642000F054FB00BF0837BD4680BDB0
:10050C0080B582B000AF03460A46FB711346BB713F
:10051C00FB79012B06D1BB797F33DBB21846FFF791
:10052C0029FE08E0FB79022B05D1BB79413BDBB2FC
:10053C001846FFF71FFE00BF0837BD4680BD80B5CB
:10054C0082B000AF03463A60FB710B46BB71BA79BF
:10055C00FB7911461846FFF7D3FF3868FFF77AFF8F
:10056C0000BF0837BD4680BD80B500AF0120FFF746
:10057C0001FE022000F014FB00BF80BD80B58AB0E4
:10058C0000AF00F0ABFA00F0B7F800F00BF900F098
:10059C0075F8082200210020FFF774FF4FF4FA7061
:1005AC0000F0FEFAFFF7E0FF032000F031F80346FD
:1005BC00FB84082000F02CF80346BB84092000F0D3
:1005CC0027F803467B84FFF7CFFFFA8C3B460E4996
:1005DC00184602F04DF83B461A4601210120FFF760
:1005EC00AEFFBA8C7B8C3846084902F041F83B468A
:1005FC001A4601210220FFF7A2FF4FF4FA6000F027
:10060C00CFFA00BFD0E700BFF42F0008003000087D
:10061C0080B586B000AF786007F1080300221A603D
:10062C005A609A607B68BB600123FB6003233B61CB
:10063C0007F108031946104800F06CFE0346002B26
:10064C0001D000F01FF90C4800F0A6FB0A210A4863
:10065C0000F07CFC0346002B01D0002308E0064888
:10066C0000F07AFD0346FB82034800F043FCFB8A52
:10067C0018461837BD4680BD7800002080B584B080
:10068C0000AF3B1D00221A605A609A60184B194A41
:10069C001A60174B00229A60154B00221A73144BE8
:1006AC0000221A75124B4FF46022DA61104B0022B3
:1006BC005A600F4B01221A610D4800F095FA03465F
:1006CC00002B01D000F0DEF803237B600123BB601C
:1006DC000323FB603B1D1946054800F01BFE034637
:1006EC00002B01D000F0CEF800BF1037BD4680BD06
:1006FC00780000200024014080B594B000AF07F1D1
:10070C00280328220021184601F0D4FF07F1140316
:10071C0000221A605A609A60DA601A613B1D00224E
:10072C001A605A609A60DA600223BB620123BB63D1
:10073C001023FB6302237B640023BB644FF4C013C0
:10074C00FB6407F12803184601F02AFA0346002B34
:10075C0001D000F097F80F237B610223BB610023CB
:10076C00FB6100233B6200237B6207F11403012130
:10077C00184601F097FC0346002B01D000F082F8DC
:10078C0002237B604FF48043FB603B1D184601F055
:10079C0003FE0346002B01D000F074F800BF503765
:1007AC00BD4680BD80B588B000AF07F110030022B4
:1007BC001A605A609A60DA602F4B9B692E4A43F09C
:1007CC00200393612C4B9B6903F02003FB60FB68B7
:1007DC00294B9B69284A43F004039361264B9B6980
:1007EC0003F00403BB60BB68234B9B69224A43F0B4
:1007FC0008039361204B9B6903F008037B607B68C3
:10080C000022F6211D4801F0B3F9F6233B610123C8
:10081C007B610023BB610223FB6107F110031946C6
:10082C00164801F021F808233B6103237B61002368
:10083C00BB6107F110031946104801F015F80123AC
:10084C003B6103237B610023BB6107F11003194655
:10085C000B4801F009F802233B6103237B61002361
:10086C00BB6107F110031946054800F0FDFF00BFFE
:10087C002037BD4680BD00BF00100240000801407B
:10088C00000C014080B400AF72B600BF00BFFDE7A2
:10089C0080B485B000AF154B9B69144A43F001033B
:1008AC009361124B9B6903F00103BB60BB680F4B58
:1008BC00DB690E4A43F08053D3610C4BDB6903F0C8
:1008CC0080537B607B680A4B5B68FB60FB6823F0A2
:1008DC00E063FB60FB6843F00073FB60044AFB6859
:1008EC00536000BF1437BD4680BC704700100240F7
:1008FC000000014080B58AB000AF786007F11803A2
:10090C0000221A605A609A60DA607B681B68234A7E
:10091C0093423FD1224B9B69214A43F4007393616C
:10092C001F4B9B6903F400737B617B691C4B9B69B8
:10093C001B4A43F004039361194B9B6903F00403B6
:10094C003B613B69164B9B69154A43F00803936165
:10095C00134B9B6903F00803FB60FB680823BB6126
:10096C000323FB6107F1180319460E4800F07CFFC6
:10097C000323BB610323FB6107F1180319460A48E3
:10098C0000F072FF00220021122000F036FF12202E
:10099C0000F04FFF00BF2837BD4680BD002401404A
:1009AC000010024000080140000C014080B400AF70
:1009BC0000BFFDE780B400AF00BFFDE780B400AF1F
:1009CC0000BFFDE780B400AF00BFFDE780B400AF0F
:1009DC0000BFFDE780B400AF00BFBD4680BC7047D0
:1009EC0080B400AF00BFBD4680BC704780B400AF80
:1009FC0000BFBD4680BC704780B500AF00F0B4F8B6
:100A0C0000BF80BD80B500AF024800F0B1FB00BF55
:100A1C0080BD00BF7800002080B586B000AF786044
:100A2C00144A154BD31A7B617B693B61134B1B68D2
:100A3C00002B02D1114B124A1A60104B1A687B68BA
:100A4C0013443A699A4207D201F03CFE03460C2249
:100A5C001A604FF0FF3309E0084B1B68FB60074B33
:100A6C001A687B681344054A1360FB6818461837EC
:100A7C00BD4680BD0050002000040000A8000020EE
:100A8C00F801002080B400AF00BFBD4680BC7047A9
:100A9C00FFF7F8FF0B480C490C4A002302E0D4582E
:100AAC00C4500433C4188C42F9D3094A094C0023AE
:100ABC0001E013600432A242FBD301F009FEFFF700
:100ACC005DFD7047000000205C0000208C300008A9
:100ADC005C000020F8010020FEE7000080B500AFAC
:100AEC00084B1B68074A43F010031360032000F007
:100AFC0079FE0F2000F008F8FFF7CAFE0023184615
:100B0C0080BD00BF0020024080B582B000AF78608D
:100B1C00124B1A68124B1B7819464FF47A73B3FBBD
:100B2C00F1F3B2FBF3F3184600F091FE0346002BF1
:100B3C0001D001230EE07B680F2B0AD800227968C4
:100B4C004FF0FF3000F059FE064A7B68136000231B
:100B5C0000E0012318460837BD4680BD0000002088
:100B6C00080000200400002080B400AF054B1B7867
:100B7C001A46054B1B681344034A136000BFBD465D
:100B8C0080BC704708000020AC00002080B400AF8F
:100B9C00024B1B681846BD4680BC7047AC00002059
:100BAC0080B584B000AF7860FFF7F0FFB8607B6869
:100BBC00FB60FB68B3F1FF3F05D00A4B1B781A466C
:100BCC00FB681344FB6000BFFFF7E0FF0246BB6805
:100BDC00D31AFA689A42F7D800BF00BF1037BD4647
:100BEC0080BD00BF0800002080B586B000AF7860E3
:100BFC000023FB7500233B610023BB600023FB60DB
:100C0C007B68002B01D10123BEE07B689B68002B25
:100C1C007B689B6A002B09D17B680022DA627B68B7
:100C2C00002283F824207868FFF764FE786800F0CF
:100C3C00C3FC0346FB757B689B6A03F01003002B17
:100C4C0040F09980FB7D002B40F095807B689B6A7F
:100C5C0023F4885323F0020343F002027B689A6268
:100C6C007B685A687B68DB691A437B681B7B5B007B
:100C7C001343BA681343BB607B689B68B3F5807FF2
:100C8C0003D07B689B68012B02D14FF4807300E08A
:100C9C0000233A6913433B617B681B7D012B19D1FF
:100CAC007B681B7B002B09D17B689B69013B5A033A
:100CBC003B69134343F400633B610BE07B689B6A25
:100CCC0043F020027B689A627B68DB6A43F0010286
:100CDC007B68DA627B681B685B6823F469417B681C
:100CEC001B683A690A435A607B681B689A68284BF0
:100CFC0013407A681268B9680B4393607B689B68F1
:100D0C00B3F5807F03D07B689B68012B04D17B6893
:100D1C001B69013B1B05FB607B681B68DB6A23F4CA
:100D2C0070017B681B68FA680A43DA627B681B688F
:100D3C009A68184B1340BA689A420BD17B68002210
:100D4C00DA627B689B6A23F0030343F001027B6841
:100D5C009A6218E07B689B6A23F0120343F010023E
:100D6C007B689A627B68DB6A43F001027B68DA621B
:100D7C000123FB7507E07B689B6A43F010027B68DC
:100D8C009A620123FB75FB7D18461837BD4680BD62
:100D9C00FDF7E1FFFE0E1FFF80B584B000AF786059
:100DAC000023FB737B6893F82430012B01D10223C1
:100DBC0098E07B68012283F82420786800F0A2FB7D
:100DCC000346FB73FB7B002B40F087807B689B6AA0
:100DDC0023F4407323F0010343F480727B689A621E
:100DEC007B681B68414A934205D1414B5B6803F415
:100DFC007023002B15D17B689B6A23F480127B68CF
:100E0C009A627B681B685B6803F48063002B26D0B6
:100E1C007B689B6A23F4405343F480527B689A624C
:100E2C001DE07B689B6A43F480127B689A627B6846
:100E3C001B682F4A934204D07B681B682B4A934251
:100E4C000DD12B4B5B6803F48063002B07D07B68C0
:100E5C009B6A23F4405343F480527B689A627B680C
:100E6C009B6A03F48053002B06D07B68DB6A23F06B
:100E7C0006027B68DA6202E07B680022DA627B6839
:100E8C00002283F824207B681B686FF002021A6032
:100E9C007B681B689B6803F46023B3F5602F13D148
:100EAC007B681B68114A934205D1114B5B6803F4B4
:100EBC007023002B08D17B681B689A687B681B68C1
:100ECC0042F4A0029A600CE07B681B689A687B680D
:100EDC001B6842F480129A6003E07B68002283F85E
:100EEC002420FB7B18461037BD4680BD00280140EE
:100EFC000024014080B584B000AF78600023FB7300
:100F0C007B6893F82430012B01D102231AE07B6813
:100F1C00012283F82420786800F04EFB0346FB7313
:100F2C00FB7B002B09D17B689B6A23F4885323F04D
:100F3C00010343F001027B689A627B68002283F80C
:100F4C002420FB7B18461037BD4680BD90B587B07A
:100F5C0000AF7860396000237B610023FB600023C5
:100F6C003B61FFF713FE78617B681B689B6803F499
:100F7C008073002B0BD07B689B6A43F020027B684C
:100F8C009A627B68002283F824200123D3E07B68DB
:100F9C001B685B6803F48073002B31D17B681B6882
:100FAC00DB6A03F47003002B2AD121E03B68B3F118
:100FBC00FF3F1DD03B68002B07D0FFF7E7FD024633
:100FCC007B69D31A3A689A4212D27B681B681B68F9
:100FDC0003F00203002B0BD17B689B6A43F00402E5
:100FEC007B689A627B68002283F824200323A2E0AA
:100FFC007B681B681B6803F00203002BD6D070E0E3
:10100C004F4B1C68022001F07DFA0346B4FBF3F24F
:10101C007B681B6819694B4B0B40002B18D17B6804
:10102C001B68D968484B0B40002B11D17B681B689F
:10103C001969464B0B40002B08D17B681B68D9689B
:10104C00434B0B40002B01D1142320E029231EE03D
:10105C007B681B6819693D4B0B40002B06D17B68E4
:10106C001B68D9683A4B0B40002B0DD07B681B6872
:10107C001969384B0B40002B08D17B681B68D96869
:10108C00344B0B40002B01D1542300E0FC2302FB1A
:10109C0003F33B6121E03B68B3F1FF3F1AD03B689F
:1010AC00002B07D0FFF772FD02467B69D31A3A6812
:1010BC009A420FD2FB683A699A420BD97B689B6AB9
:1010CC0043F004027B689A627B68002283F8242038
:1010DC00032330E0FB680133FB60FB683A699A42FA
:1010EC00D9D87B681B686FF012021A607B689B6A08
:1010FC0043F400727B689A627B681B689B6803F4FC
:10110C006023B3F5602F15D17B681B7B002B11D1AD
:10111C007B689B6A23F480727B689A627B689B6A0B
:10112C0003F48053002B05D17B689B6A43F00102CA
:10113C007B689A62002318461C37BD4690BD00BFE1
:10114C000000002024499224244992009224491240
:10115C00922449004992240080B483B000AF786097
:10116C007B681B68DB6C18460C37BD4680BC70472F
:10117C0080B584B000AF78607B681B681B68FB602F
:10118C007B681B685B68BB60BB6803F02003002BAB
:10119C003ED0FB6803F00203002B39D07B689B6ABE
:1011AC0003F01003002B05D17B689B6A43F400729B
:1011BC007B689A627B681B689B6803F46023B3F5B9
:1011CC00602F1DD17B681B7B002B19D17B681B68A2
:1011DC005A687B681B6822F020025A607B689B6A05
:1011EC0023F480727B689A627B689B6A03F4805359
:1011FC00002B05D17B689B6A43F001027B689A62E5
:10120C00786800F074F87B681B686FF012021A6043
:10121C00BB6803F08003002B4DD0FB6803F0040384
:10122C00002B48D07B689B6A03F01003002B05D180
:10123C007B689B6A43F400527B689A627B681B68EC
:10124C009B6803F4E043B3F5E04F12D07B681B6856
:10125C005B6803F48063002B25D17B681B689B685B
:10126C0003F46023B3F5602F1DD17B681B7B002B2F
:10127C0019D17B681B685A687B681B6822F0800256
:10128C005A607B689B6A23F480527B689A627B6805
:10129C009B6A03F48073002B05D17B689B6A43F037
:1012AC0001027B689A62786800F0C7F97B681B685A
:1012BC006FF00C021A60BB6803F04003002B12D0D5
:1012CC00FB6803F00103002B0DD07B689B6A43F491
:1012DC0080327B689A62786800F012F87B681B6831
:1012EC006FF001021A6000BF1037BD4680BD80B49C
:1012FC0083B000AF786000BF0C37BD4680BC704730
:10130C0080B483B000AF786000BF0C37BD4680BCA2
:10131C007047000080B485B000AF7860396000235E
:10132C00FB730023BB607B6893F82430012B01D145
:10133C000223DCE07B68012283F824203B685B6895
:10134C00062B1CD87B681B68596B3B685A68134684
:10135C009B001344053B1F2202FA03F3DB431940A5
:10136C003B6818683B685A6813469B001344053B5E
:10137C0000FA03F27B681B680A435A633CE03B6843
:10138C005B680C2B1CD87B681B68196B3B685A6814
:10139C0013469B001344233B1F2202FA03F3DB4347
:1013AC0019403B6818683B685A6813469B00134405
:1013BC00233B00FA03F27B681B680A431A631BE0A9
:1013CC007B681B68D96A3B685A6813469B001344B8
:1013DC00413B1F2202FA03F3DB4319403B681868B8
:1013EC003B685A6813469B001344413B00FA03F2D6
:1013FC007B681B680A43DA623B681B68092B1CD9A3
:10140C007B681B68D9683B681A6813465B001344F9
:10141C001E3B072202FA03F3DB4319403B68986832
:10142C003B681A6813465B0013441E3B00FA03F238
:10143C007B681B680A43DA6019E07B681B681969D2
:10144C003B681A6813465B001344072202FA03F345
:10145C00DB4319403B6898683B681A6813465B008D
:10146C00134400FA03F27B681B680A431A613B6859
:10147C001B68102B03D03B681B68112B32D17B6887
:10148C001B681D4A934225D17B681B689B6803F43B
:10149C000003002B26D17B681B689A687B681B684D
:1014AC0042F400029A603B681B68102B1AD1134B54
:1014BC001B68134AA2FB03239A0C13469B0013448C
:1014CC005B00BB6002E0BB68013BBB60BB68002BF0
:1014DC00F9D107E07B689B6A43F020027B689A6233
:1014EC000123FB737B68002283F82420FB7B1846C6
:1014FC001437BD4680BC704700240140000000201A
:10150C0083DE1B4380B584B000AF78600023FB60A2
:10151C000023BB607B681B689B6803F00103012BF5
:10152C0040D07B681B689A687B681B6842F001029C
:10153C009A601F4B1B681F4AA2FB03239B0CBB60CA
:10154C0002E0BB68013BBB60BB68002BF9D1FFF725
:10155C001DFBF8601FE0FFF719FB0246FB68D31A6E
:10156C00022B18D97B681B689B6803F00103012BC5
:10157C0011D07B689B6A43F010027B689A627B688F
:10158C00DB6A43F001027B68DA627B68002283F835
:10159C002420012307E07B681B689B6803F0010390
:1015AC00012BD8D1002318461037BD4680BD00BF93
:1015BC000000002083DE1B4380B584B000AF786050
:1015CC000023FB607B681B689B6803F00103012B05
:1015DC002ED17B681B689A687B681B6822F001021D
:1015EC009A60FFF7D3FAF8601BE0FFF7CFFA0246D8
:1015FC00FB68D31A022B14D97B681B689B6803F019
:10160C000103012B0DD17B689B6A43F010027B68B0
:10161C009A627B68DB6A43F001027B68DA62012321
:10162C0007E07B681B689B6803F00103012BDCD08F
:10163C00002318461037BD4680BD80B483B000AF80
:10164C00786000BF0C37BD4680BC704780B485B055
:10165C0000AF78607B6803F00703FB600C4BDB6822
:10166C00BB60BA684FF6FF031340BB60FB681A02FD
:10167C00BB68134343F0BF6343F40033BB60044ABD
:10168C00BB68D36000BF1437BD4680BC704700BF39
:10169C0000ED00E080B400AF044BDB681B0A03F0E4
:1016AC0007031846BD4680BC704700BF00ED00E044
:1016BC0080B483B000AF0346FB7197F90730002B61
:1016CC000BDBFB7903F01F02064997F907305B0926
:1016DC00012000FA02F241F8232000BF0C37BD466E
:1016EC0080BC704700E100E080B483B000AF0346DB
:1016FC003960FB7197F90730002B0ADB3B68DAB2D3
:10170C000C4997F907301201D2B20B4483F800232D
:10171C000AE03B68DAB20849FB7903F00F03043B9B
:10172C001201D2B20B441A7600BF0C37BD4680BCF6
:10173C00704700BF00E100E000ED00E080B489B02C
:10174C0000AFF860B9607A60FB6803F00703FB61D7
:10175C00FB69C3F10703042B28BF0423BB61FB699E
:10176C000433062B02D9FB69033B00E000237B61A9
:10177C004FF0FF32BB6902FA03F3DA43BB681A403D
:10178C007B699A404FF0FF317B6901FA03F3D9432F
:10179C007B680B40134318462437BD4680BC70470A
:1017AC0080B582B000AF78607B68013BB3F1807F7D
:1017BC0001D301230FE00A4A7B68013B53600F21E0
:1017CC004FF0FF30FFF790FF054B00229A60044B5F
:1017DC0007221A60002318460837BD4680BD00BF9B
:1017EC0010E000E080B582B000AF78607868FFF759
:1017FC002DFF00BF0837BD4680BD80B586B000AF59
:10180C000346B9607A60FB7300237B61FFF742FFEC
:10181C0078617A68B9687869FFF790FF024697F9A2
:10182C000F3011461846FFF75FFF00BF1837BD4653
:10183C0080BD80B582B000AF0346FB7197F90730CD
:10184C001846FFF735FF00BF0837BD4680BD80B591
:10185C0082B000AF78607868FFF7A2FF03461846A5
:10186C000837BD4680BD000080B48BB000AF7860F7
:10187C00396000237B6200233B6269E101227B6AB1
:10188C0002FA03F3FB613B681B68FA691340BB6106
:10189C00BA69FB699A4240F058813B685B689A4A86
:1018AC0093425ED0984A934275D8984A934258D046
:1018BC00964A93426FD8964A934252D0944A934296
:1018CC0069D8944A93424CD0924A934263D8924A34
:1018DC00934246D0904A93425DD8122B2AD8122BB1
:1018EC0059D801A252F823F06F19000849190008C1
:1018FC005B1900089D190008A3190008A31900081A
:10190C00A3190008A3190008A3190008A3190008BB
:10191C00A3190008A3190008A3190008A3190008AB
:10192C00A3190008A3190008A319000851190008ED
:10193C0065190008794A934213D02CE03B68DB68A8
:10194C003B6229E03B68DB6804333B6224E03B6884
:10195C00DB6808333B621FE03B68DB680C333B629F
:10196C001AE03B689B68002B02D104233B6213E016
:10197C003B689B68012B05D108233B627B68FA69A5
:10198C001A6109E008233B627B68FA695A6103E03B
:10199C0000233B6200E000BFBB69FF2B01D87B68D2
:1019AC0001E07B6804337B61BB69FF2B02D87B6A47
:1019BC009B0002E07B6A083B9B003B617B691A68D9
:1019CC000F213B6901FA03F3DB431A40396A3B6987
:1019DC0001FA03F31A437B691A603B685B6803F0F6
:1019EC008053002B00F0B1804D4B9B694C4A43F067
:1019FC00010393614A4B9B6903F00103BB60BB6815
:101A0C00484A7B6A9B08023352F82330FB607B6A9E
:101A1C0003F003039B000F2202FA03F3DB43FA6883
:101A2C001340FB607B68404A934213D07B683F4A6B
:101A3C0093420DD07B683E4A934207D07B683D4A67
:101A4C00934201D1032306E0042304E0022302E0C5
:101A5C00012300E000237A6A02F003029200934013
:101A6C00FA681343FB602F497B6A9B080233FA68C0
:101A7C0041F823203B685B6803F48013002B06D0ED
:101A8C002D4B9A682C49BB6913438B6006E02A4B9B
:101A9C009A68BB69DB43284913408B603B685B68E1
:101AAC0003F40013002B06D0234BDA682249BB69E0
:101ABC001343CB6006E0204BDA68BB69DB431E495D
:101ACC001340CB603B685B6803F40033002B06D0FB
:101ADC00194B5A681849BB6913434B6006E0164B07
:101AEC005A68BB69DB43144913404B603B685B6825
:101AFC0003F48033002B21D00F4B1A680E49BB69BD
:101B0C0013430B6021E000BF0000321000003110C5
:101B1C000000221000002110000012100000111013
:101B2C00001002400000014000080140000C014080
:101B3C000010014000140140000401400B4B1A68D6
:101B4C00BB69DB43094913400B607B6A01337B6241
:101B5C003B681A687B6A22FA03F3002B7FF48EAE83
:101B6C0000BF00BF2C37BD4680BC7047000401404D
:101B7C0080B483B000AF78600B467B8013467B70DB
:101B8C007B78002B03D07A887B681A6103E07B8812
:101B9C001A047B681A6100BF0C37BD4680BC7047C5
:101BAC0080B586B000AF78607B68002B01D1012333
:101BBC0072E27B681B6803F00103002B00F0878046
:101BCC00924B5B6803F00C03042B0CD08F4B5B68BF
:101BDC0003F00C03082B12D18C4B5B6803F480339D
:101BEC00B3F5803F0BD1894B1B6803F40033002BFA
:101BFC006CD07B685B68002B68D101234CE27B685E
:101C0C005B68B3F5803F06D1804B1B687F4A43F479
:101C1C00803313602EE07B685B68002B0CD17B4B10
:101C2C001B687A4A23F480331360784B1B68774A1D
:101C3C0023F4802313601DE07B685B68B3F5A02F51
:101C4C000CD1724B1B68714A43F4802313606F4BA9
:101C5C001B686E4A43F4803313600BE06B4B1B68BC
:101C6C006A4A23F480331360684B1B68674A23F479
:101C7C00802313607B685B68002B13D0FEF786FF14
:101C8C00386108E0FEF782FF02463B69D31A642BE9
:101C9C0001D9032300E25D4B1B6803F40033002BD6
:101CAC00F0D014E0FEF772FF386108E0FEF76EFF2B
:101CBC0002463B69D31A642B01D90323ECE1534B45
:101CCC001B6803F40033002BF0D100E000BF7B68ED
:101CDC001B6803F00203002B63D04C4B5B6803F0D2
:101CEC000C03002B0BD0494B5B6803F00C03082B47
:101CFC001CD1464B5B6803F48033002B16D1434B4D
:101D0C001B6803F00203002B05D07B681B69012BB9
:101D1C0001D00123C0E13D4B1B6823F0F8027B6826
:101D2C005B69DB00394913430B603AE07B681B6944
:101D3C00002B20D0364B01221A60FEF727FF3861AA
:101D4C0008E0FEF723FF02463B69D31A022B01D9A8
:101D5C000323A1E12D4B1B6803F00203002BF0D0F1
:101D6C002A4B1B6823F0F8027B685B69DB00274970
:101D7C0013430B6015E0264B00221A60FEF706FF9A
:101D8C00386108E0FEF702FF02463B69D31A022BCA
:101D9C0001D9032380E11D4B1B6803F00203002BC8
:101DAC00F0D17B681B6803F00803002B3AD07B68EA
:101DBC009B69002B19D0174B01221A60FEF7E6FE27
:101DCC00386108E0FEF7E2FE02463B69D31A022BAB
:101DDC0001D9032360E10D4B5B6A03F00203002B76
:101DEC00F0D0012000F0BAFA1CE00A4B00221A6075
:101DFC00FEF7CCFE38610FE0FEF7C8FE02463B69E9
:101E0C00D31A022B08D9032346E100BF001002406D
:101E1C000000424280044242924B5B6A03F0020390
:101E2C00002BE9D17B681B6803F00403002B00F046
:101E3C00A6800023FB758B4BDB6903F08053002BD2
:101E4C000DD1884BDB69874A43F08053D361854BB6
:101E5C00DB6903F08053BB60BB680123FB75824BCD
:101E6C001B6803F48073002B18D17F4B1B687E4AD0
:101E7C0043F480731360FEF789FE386108E0FEF7C7
:101E8C0085FE02463B69D31A642B01D9032303E177
:101E9C00754B1B6803F48073002BF0D07B68DB68F8
:101EAC00012B06D16F4B1B6A6E4A43F00103136280
:101EBC002DE07B68DB68002B0CD16A4B1B6A694AEE
:101ECC0023F001031362674B1B6A664A23F0040379
:101EDC0013621CE07B68DB68052B0CD1614B1B6A21
:101EEC00604A43F0040313625E4B1B6A5D4A43F085
:101EFC00010313620BE05B4B1B6A5A4A23F001038C
:101F0C001362584B1B6A574A23F0040313627B6815
:101F1C00DB68002B15D0FEF739FE38610AE0FEF7BE
:101F2C0035FE02463B69D31A41F28832934201D9FD
:101F3C000323B1E04B4B1B6A03F00203002BEED0E2
:101F4C0014E0FEF723FE38610AE0FEF71FFE02469E
:101F5C003B69D31A41F28832934201D903239BE0A7
:101F6C00404B1B6A03F00203002BEED1FB7D012BCF
:101F7C0005D13C4BDB693B4A23F08053D3617B6832
:101F8C00DB69002B00F08780364B5B6803F00C0399
:101F9C00082B61D07B68DB69022B46D1334B0022C6
:101FAC001A60FEF7F3FD386108E0FEF7EFFD02461C
:101FBC003B69D31A022B01D903236DE0294B1B6813
:101FCC0003F00073002BF0D17B681B6AB3F5803FE4
:101FDC0008D1244B5B6823F400327B689B68214951
:101FEC0013434B601F4B5B6823F474127B68196AB4
:101FFC007B685B6A0B431B4913434B601B4B0122F1
:10200C001A60FEF7C3FD386108E0FEF7BFFD02461B
:10201C003B69D31A022B01D903233DE0114B1B68FA
:10202C0003F00073002BF0D035E0104B00221A6047
:10203C00FEF7ACFD386108E0FEF7A8FD02463B69EF
:10204C00D31A022B01D9032326E0064B1B6803F09D
:10205C000073002BF0D11EE07B68DB69012B07D1EC
:10206C00012319E000100240007000406000424261
:10207C000B4B5B68FB60FB6803F480327B681B6A6C
:10208C009A4206D1FB6803F470127B685B6A9A4231
:10209C0001D0012300E0002318461837BD4680BD4F
:1020AC000010024080B584B000AF786039607B6866
:1020BC00002B01D10123D0E06A4B1B6803F007030E
:1020CC003A689A4210D9674B1B6823F0070265499E
:1020DC003B6813430B60634B1B6803F007033A68C0
:1020EC009A4201D00123B8E07B681B6803F002031D
:1020FC00002B20D07B681B6803F00403002B05D059
:10210C00594B5B68584A43F4E06353607B681B6827
:10211C0003F00803002B05D0534B5B68524A43F481
:10212C0060535360504B5B6823F0F0027B689B68F4
:10213C004D4913434B607B681B6803F00103002B74
:10214C0040D07B685B68012B07D1474B1B6803F4BD
:10215C000033002B15D101237FE07B685B68022BD9
:10216C0007D1414B1B6803F00073002B09D10123ED
:10217C0073E03D4B1B6803F00203002B01D10123DC
:10218C006BE0394B5B6823F003027B685B68364974
:10219C0013434B60FEF7FAFCF8600AE0FEF7F6FC1E
:1021AC000246FB68D31A41F28832934201D90323C9
:1021BC0053E02D4B5B6803F00C027B685B689B0063
:1021CC009A42EBD1274B1B6803F007033A689A42FB
:1021DC0010D2244B1B6823F0070222493B6813439F
:1021EC000B60204B1B6803F007033A689A4201D03E
:1021FC00012332E07B681B6803F00403002B08D03A
:10220C00194B5B6823F4E0627B68DB681649134367
:10221C004B607B681B6803F00803002B09D0124B42
:10222C005B6823F460527B681B69DB000E49134327
:10223C004B6000F021F802460B4B5B681B0903F066
:10224C000F030A49CB5C22FA03F3094A1360094BCA
:10225C001B681846FEF758FC002318461037BD467D
:10226C0080BD00BF0020024000100240103000086A
:10227C00000000200400002080B487B000AF0023D1
:10228C00FB600023BB6000237B6100237B60002389
:10229C003B611E4B5B68FB60FB6803F00C03042B7B
:1022AC0002D0082B03D027E0194B3B6127E0FB68D9
:1022BC009B0C03F00F03174AD35C7B60FB6803F4A1
:1022CC008033002B10D0114B5B685B0C03F00103C7
:1022DC00114AD35CBB607B680D4A03FB02F2BB68FE
:1022EC00B2FBF3F37B6104E07B680C4A02FB03F363
:1022FC007B617B693B6102E0054B3B6100BF3B6945
:10230C0018461C37BD4680BC704700BF0010024009
:10231C0000127A00283000083830000800093D000F
:10232C0080B400AF024B1B681846BD4680BC70479A
:10233C000000002080B500AFFFF7F2FF0246054B0E
:10234C005B68DB0A03F007030349CB5C22FA03F357
:10235C00184680BD001002402030000880B485B0C3
:10236C0000AF78600A4B1B680A4AA2FB03235B0A86
:10237C007A6802FB03F3FB6000BFFB685A1EFA602D
:10238C00002BF9D100BF00BF1437BD4680BC70478D
:10239C0000000020D34D621080B586B000AF78608D
:1023AC0000233B610023FB607B681B6803F0010387
:1023BC00002B7DD00023FB754F4BDB6903F0805362
:1023CC00002B0DD14C4BDB694B4A43F08053D3614E
:1023DC00494BDB6903F08053BB60BB680123FB7581
:1023EC00464B1B6803F48073002B18D1434B1B68BE
:1023FC00424A43F480731360FEF7C8FB386108E06F
:10240C00FEF7C4FB02463B69D31A642B01D90323A4
:10241C006DE03A4B1B6803F48073002BF0D0364B05
:10242C001B6A03F44073FB60FB68002B2ED07B68A7
:10243C005B6803F44073FA689A4227D02E4B1B6AF0
:10244C0023F44073FB602E4B01221A602C4B0022AC
:10245C001A60294AFB681362FB6803F00103002B26
:10246C0014D0FEF793FB38610AE0FEF78FFB0246AF
:10247C003B69D31A41F28832934201D9032336E0E7
:10248C001D4B1B6A03F00203002BEED01A4B1B6A88
:10249C0023F440727B685B68174913430B62FB7D26
:1024AC00012B05D1144BDB69134A23F08053D36104
:1024BC007B681B6803F00203002B08D00E4B5B6893
:1024CC0023F440427B689B680B4913434B607B6849
:1024DC001B6803F01003002B08D0074B5B6823F438
:1024EC0080027B68DB68044913434B600023184669
:1024FC001837BD4680BD00BF001002400070004080
:10250C004004424280B588B000AF786000237B6104
:10251C000023FB6100233B610023FB600023BB61B4
:10252C007B68102B0AD07B68102B00F28A807B68AA
:10253C00012B45D07B68022B75D082E0464B5B6843
:10254C00FB60454B1B6803F08073002B7BD0FB6852
:10255C009B0C03F00F03414AD35C3B61FB6803F413
:10256C008033002B15D03C4B5B685B0C03F00103F4
:10257C003B4AD35C7B61FB6803F48033002B0DD0AA
:10258C00384A7B69B2FBF3F23B6902FB03F3FB6154
:10259C0004E03B69344A02FB03F3FB612E4B5B689E
:1025AC0003F48003B3F5800F02D1FB69BB614AE0F1
:1025BC00FB695B002D4AA2FB03235B08BB6142E075
:1025CC00254B1B6AFB60FB6803F44073B3F5807FFB
:1025DC0008D1FB6803F00203002B03D04FF4004337
:1025EC00BB611FE0FB6803F44073B3F5007F09D1B6
:1025FC00194B5B6A03F00203002B03D049F64043EE
:10260C00BB610FE0FB6803F44073B3F5407F1CD152
:10261C00114B1B6803F40033002B16D04FF22443EC
:10262C00BB6112E011E0FFF785FE02460A4B5B68C6
:10263C009B0B03F0030301335B00B2FBF3F3BB61B1
:10264C0004E000BF02E000BF00E000BFBB69184619
:10265C002037BD4680BD00BF001002403C30000852
:10266C004C30000800127A0000093D00ABAAAAAA5F
:10267C000EB46FF0004110B500249DB01FAB02905A
:10268C000690079104910948094953F8042B0591C8
:10269C00006802A901931B9400F092F9029B1C7034
:1026AC001DB0BDE8104003B0704700BF0C00002007
:1026BC000802FFFF03460244934200D1704703F81F
:1026CC00011BF9E7014B1868704700BF0C00002094
:1026DC0070B500260C4D0D4C641BA410A64209D1FC
:1026EC0000F076FC00260A4D0A4C641BA410A6428E
:1026FC0005D170BD55F8043B98470136EEE755F807
:10270C00043B98470136F2E7843000088430000817
:10271C0084300008883000087047704738B505468B
:10272C00002940D051F8043C0C1F002BB8BFE41812
:10273C0000F0DEF81C4A136833B963601460284655
:10274C00BDE8384000F0DAB8A34208D92068211857
:10275C008B4201BF19685B6809182160EDE71A46C6
:10276C005B680BB1A342FAD911685018A0420BD187
:10277C0020680144501883421160E0D118685B68EE
:10278C00084410605360DAE702D90C232B60D6E7BB
:10279C00206821188B4201BF19685B6809182160F9
:1027AC0063605460CBE738BDF401002070B50F4E68
:1027BC000C463168054611B900F0A8FB3060214683
:1027CC00284600F0A3FB431C03D14FF0FF342046F6
:1027DC0070BDC41C24F00304A042F8D0211A284672
:1027EC0000F094FB0130F2D1EFE700BFF0010020C4
:1027FC002DE9F843CD1C25F0030508350C2D38BF09
:10280C000C25002D064601DBA94204D90C233360AC
:10281C000020BDE8F883DFF8D48000F069F8D8F820
:10282C0000301C4644BB29463046FFF7BFFF431C13
:10283C00044658D1D8F800402746002F43D1002C2D
:10284C004BD023683946304604EB030900F05EFB9D
:10285C00814542D1216830466D1A2946FFF7A6FF03
:10286C0001303AD023682B442360D8F800305A68E2
:10287C0062BBC8F800700FE02268521B20D40B2AF0
:10288C0017D96119A342256018BF5960636808BF46
:10289C00C8F8001062514B60304600F02FF804F17C
:1028AC000B00231D20F00700C21A1CBF1B1AA350DB
:1028BC00AFE76268A3420CBFC8F800205A60EBE790
:1028CC0023466468AEE73C467F68B6E71A465B6809
:1028DC00A342FBD100235360DEE70C233046336068
:1028EC0000F00CF894E70560D6E700BFF401002077
:1028FC000148FFF711BF00BFEC0100200148FFF7B2
:10290C000CBF00BFEC0100202DE9F0471F468E687C
:10291C008246BE420C4690460B682DD8B1F90C206D
:10292C0012F4906F26D06569096905EB4505A3EB98
:10293C00010905EBD5757B1C4B446D109D4238BFCE
:10294C001D46530527D52946FFF752FF064660B3AF
:10295C004A46216900F0F8FAA38923F4906343F006
:10296C008003A38126614E4426603E466561A5EB3B
:10297C000905A560BE4200D93E4632464146206854
:10298C0000F0AAFA0020A3689B1BA36023683344C1
:10299C002360BDE8F0872A4600F0E4FA06460028DA
:1029AC00E0D150462169FFF7B9FE0C23CAF800307C
:1029BC00A3894FF0FF3043F04003A381E9E7000007
:1029CC002DE9F04F98468B8907461B060D46144699
:1029DC009DB010D50B6973B94021FFF709FF286032
:1029EC00286130B90C233B604FF0FF301DB0BDE8BF
:1029FC00F08F40236B610023099320238DF829303D
:102A0C0030234FF00109CDF80C80DFF898818DF858
:102A1C002A3023469A4613F8012B0AB1252AF9D1FC
:102A2C00BAEB040B0BD05B46224629463846FFF71F
:102A3C006BFF013000F0A780099A5A4409929AF86A
:102A4C000030002B00F09F8000234FF0FF32CDE9C7
:102A5C0005230AF1010A049307938DF853301A9356
:102A6C005446052214F8011B4E4800F05FFA049AF4
:102A7C00D8B9D00644BF20238DF85330110744BF7A
:102A8C002B238DF853309AF800302A2B15D054464E
:102A9C0000204FF00A0C079A214611F8013B303BFD
:102AAC00092B4BD9B0B1079214E0A0EB080309FA3B
:102ABC0003F31343A2460493D2E7039B191D1B682F
:102ACC000391002BBBBF5B4242F0020207930793BA
:102ADC00B8BF049223782E2B0AD163782A2B32D1DB
:102AEC00039B02341A1D1B68039243EAE37305939C
:102AFC00DFF8B4A003225046217800F017FA38B161
:102B0C004022049BA0EB0A0082401343013404933F
:102B1C0014F8011B062225488DF8281000F006FA3F
:102B2C00002836D0224B1BBB039B073323F0070333
:102B3C0008330393099B334409936AE70C4601203D
:102B4C000CFB0232A8E700234FF00A0C19460134A3
:102B5C000593204610F8012B303A092A03D9002B93
:102B6C00C6D00591C4E7044601230CFB0121F0E714
:102B7C0003AB00932A4638460E4B04A9AFF30080F2
:102B8C00421C0646D6D1AB895B063FF52DAF0998A2
:102B9C002CE703AB00932A463846064B04A900F0F9
:102BAC007DF8EDE74E30000854300008583000082E
:102BBC0000000000152900082DE9F047164698463C
:102BCC008A680B6907469342B8BF1346336091F885
:102BDC0043200C46DDF820900AB1013333602368A2
:102BEC00990642BF336802333360256815F0060539
:102BFC0006D104F1190AE36832689B1AAB422BDC4C
:102C0C0094F843302268003B18BF0123920630D45D
:102C1C004146384604F14302C847013023D02368AB
:102C2C00226903F00603042B14BF002533684FF010
:102C3C00000608BFE56804F11A0408BFED1A54F841
:102C4C00123C08BF25EAE5759342C4BF9B1AED18E8
:102C5C00B5421AD1002008E00123524641463846BD
:102C6C00C847013003D14FF0FF30BDE8F087013584
:102C7C00C1E73020E11881F843005A1C94F8451044
:102C8C002244023382F84310C2E701232246414614
:102C9C003846C8470130E6D00136D9E72DE9FF4761
:102CAC000F7E9146782F80460C469A460C9E01F179
:102CBC00430207D8622F0AD8002F00F0D180582F7A
:102CCC0000F0B88004F1420684F842703AE0A7F1B3
:102CDC006303152BF6D801A151F823F0412D000800
:102CEC00552D0008D12C0008D12C0008D12C00083F
:102CFC00D12C0008552D0008D12C0008D12C00082F
:102D0C00D12C0008D12C0008532E00087F2D000870
:102D1C000D2E0008D12C0008D12C0008752E0008AF
:102D2C00D12C00087F2D0008D12C0008D12C0008D4
:102D3C00152E000833681A1D1B68326004F1420618
:102D4C0084F8423001239CE033682068191D3160FF
:102D5C00060601D51D6803E04506FBD5B3F9005006
:102D6C00002D03DA2D236D4284F843300A23584892
:102D7C0011E021683368080653F8045B02D4490655
:102D8C0048BFADB26F2F336014BF0A2308235048DD
:102D9C00002184F843106668002EA66005DB2168CC
:102DAC002E4321F0040121604BD01646B5FBF3F104
:102DBC0003FB1157C75D06F8017D2F46BB420D463C
:102DCC00F4D9082B0BD12368DF0708D52369616878
:102DDC009942DEBF302306F8013C06F1FF36921B08
:102DEC0022614B4621464046CDF800A003AAFFF7CE
:102DFC00E3FE01304AD14FF0FF3004B0BDE8F0875C
:102E0C00236843F0200323607827324884F8457008
:102E1C00236831681F0651F8045B02D45F0648BF73
:102E2C00ADB23160D90744BF43F0200323601DB11C
:102E3C001023ADE72648E9E7236823F0200323603D
:102E4C00F6E71646BDE733682568181D61693060E2
:102E5C002E061B6801D5196002E06806FBD51980A7
:102E6C00002316462361BCE7336800211A1D32602B
:102E7C001E686268304600F059F808B1801B60602B
:102E8C0063682361002384F84330AAE7324649463D
:102E9C0040462369D0470130ADD023689B0713D43B
:102EAC00E068039B9842B8BF1846A6E70123324658
:102EBC0049464046D04701309DD00135E36803991F
:102ECC005B1AAB42F2DCEBE7002504F11906F5E7DF
:102EDC005F30000870300008884210B501EB020426
:102EEC0002D98442234607D8431EA14208D011F8C8
:102EFC00012B03F8012FF8E7014602448A4200D166
:102F0C0010BD13F8014D02F8014DF7E738B5002359
:102F1C00054D044608462B60FDF77EFD431C02D18F
:102F2C002B6803B1236038BDE8010020034610B5BF
:102F3C00C9B202449342184601D1002003E0047840
:102F4C0001338C42F6D110BD0A44914200F1FF339B
:102F5C0000D1704710B511F8014B914203F8014FA5
:102F6C00F9D110BD2DE9F041074614460D4621B9A3
:102F7C001146BDE8F041FFF73BBC2AB9FFF7CEFB89
:102F8C0025462846BDE8F08100F01AF88442064632
:102F9C0002D8B4EB500FF4D821463846FFF728FC82
:102FAC00804608B94546ECE7B4422246294628BF7C
:102FBC003246FFF7C9FF29463846FFF7AFFBF1E76A
:102FCC0051F8043C181F002BBCBF0B58C01870479D
:102FDC00F8B500BFF8BC08BC9E467047F8B500BFFA
:082FEC00F8BC08BC9E467047CA
:102FF4005041333A20253264000000005042303AF8
:103004002532645042313A25326400000000000049
:103014000000000001020304060708090000000084
:103024000102030402030405060708090A0B0C0D38
:103034000E0F101001020000020304050607080920
:103044000A0B0C0D0E0F10100102232D302B200043
:10305400686C4C006566674546470030313233344E
:1030640035363738394142434445460030313233EE
:1030740034353637383961626364656600000000B0
:04308400310100080E
:043088000D0100082E
:10308C0000127A0010000000010000001000002067
:10309C0000000000B000002018010020800100207A
:1030AC000000000000000000000000000000000014
:1030BC000000000000000000000000000000000004
:1030CC0000000000000000000000000000000000F4
:0C30DC00000000000000000000000000E8
:0400000508000A9D48
:00000001FF
