:020000040800F2
:10000000005000205D0800088D07000895070008D3
:100010009D070008A5070008AD07000800000000C4
:10002000000000000000000000000000B50700080C
:10003000C107000800000000CD070008D90700082C
:10004000A5080008A5080008A5080008A5080008DC
:10005000A5080008A5080008A5080008A5080008CC
:10006000A5080008A5080008A5080008A5080008BC
:10007000A5080008A5080008A5080008A5080008AC
:10008000A5080008A5080008A5080008A50800089C
:10009000A5080008A5080008A5080008A50800088C
:1000A000A5080008A5080008A5080008A50800087C
:1000B000A5080008A5080008A5080008A50800086C
:1000C000A5080008A5080008A5080008A50800085C
:1000D000A5080008A5080008A5080008A50800084C
:1000E000A5080008A5080008A508000800000000F1
:1000F0000000000000000000000000000000000000
:0C01000000000000000000005FF808F1A3
:10010C0010B5054C237833B9044B13B10448AFF345
:10011C0000800123237010BD5C0000200000000053
:10012C00D01F000808B5034B1BB103490348AFF3BC
:10013C00008008BD0000000060000020D01F0008F7
:10014C0080B483B000AF786002E07B68013B7B60D9
:10015C007B68002BF9D100BF00BF0C37BD4680BCBB
:10016C00704780B500AF4FF47A70FFF7E9FF00BF1E
:10017C0080BD000080B582B000AF0346FB71574BC9
:10018C0004225A61554B02225A61544B10225A6177
:10019C00524B20225A61514B40225A614F4B8022C4
:1001AC005A61FFF7DEFF4D4BDB684C4A43F002030C
:1001BC00D360FB7903F01003002B03D0474B1022C4
:1001CC001A6103E0454B4FF480121A61FB7903F07E
:1001DC002003002B03D0414B20221A6103E03F4B3C
:1001EC004FF400121A61FB7903F04003002B03D08B
:1001FC003A4B40221A6103E0384B4FF480021A61EB
:10020C0097F90730002B03DA344B80221A6103E094
:10021C00324B4FF400021A61FFF7A3FF2F4B02225F
:10022C005A612E4B10225A612C4B20225A612B4BB7
:10023C0040225A61294B80225A61FFF792FF274BCB
:10024C00DB68264A43F00203D360FB7903F0010319
:10025C00002B03D0214B10221A6103E01F4B4FF4EB
:10026C0080121A61FB7903F00203002B03D01B4BA5
:10027C0020221A6103E0194B4FF400121A61FB792A
:10028C0003F00403002B03D0144B40221A6103E04B
:10029C00124B4FF480021A61FB7903F00803002B18
:1002AC0003D00E4B80221A6103E00C4B4FF400027A
:1002BC001A61FFF756FF094B02225A61074B1022B5
:1002CC005A61064B20225A61044B40225A61034B5F
:1002DC0080225A6100BF0837BD4680BD000801402E
:1002EC0080B582B000AF0346FB71594BDB68584AAE
:1002FC0043F00403D360564B02225A61544B102234
:10030C005A61534B20225A61514B40225A61504B37
:10031C0080225A61FFF725FF4D4BDB684C4A43F0B6
:10032C000203D360FB7903F01003002B03D0484B7E
:10033C0010221A6103E0464B4FF480121A61FB79CC
:10034C0003F02003002B03D0414B20221A6103E061
:10035C003F4B4FF400121A61FB7903F04003002B62
:10036C0003D03B4B40221A6103E0394B4FF480021F
:10037C001A6197F90730002B03DA354B80221A618A
:10038C0003E0334B4FF400021A61FFF7EAFE304BE7
:10039C0002225A612E4B10225A612D4B20225A6197
:1003AC002B4B40225A612A4B80225A61FFF7D9FE0F
:1003BC00274BDB68264A43F00203D360FB7903F03A
:1003CC000103002B03D0224B10221A6103E0204BB7
:1003DC004FF480121A61FB7903F00203002B03D057
:1003EC001B4B20221A6103E0194B4FF400121A61C7
:1003FC00FB7903F00403002B03D0154B40221A6148
:10040C0003E0134B4FF480021A61FB7903F00803ED
:10041C00002B03D00E4B80221A6103E00C4B4FF4DF
:10042C0000021A61FFF79DFE094B02225A61084B2C
:10043C0010225A61064B20225A61054B40225A6108
:10044C00034B80225A6100BF0837BD4680BD00BFF8
:10045C000008014080B582B000AF786008E0FFF77B
:10046C0080FE7B685A1C7A601B781846FFF738FFB1
:10047C007B681B78002BF2D1FFF773FE00BF0837A7
:10048C00BD4680BD80B582B000AF0346FB710B4604
:10049C00BB7113467B71FA2000F062FA0220FFF761
:1004AC0069FE322000F05CFAFA79BB791343DAB2B8
:1004BC007B791343DBB243F02003DBB21846FFF722
:1004CC0059FE322000F04CFA0620FFF753FE322082
:1004DC0000F046FA0E20FFF74DFE322000F040FAF5
:1004EC000C20FFF747FE322000F03AFA0120FFF70C
:1004FC0041FE642000F034FA00BF0837BD4680BDD1
:10050C0080B582B000AF03460A46FB711346BB713F
:10051C00FB79012B06D1BB797F33DBB21846FFF791
:10052C0029FE08E0FB79022B05D1BB79413BDBB2FC
:10053C001846FFF71FFE00BF0837BD4680BD80B5CB
:10054C0082B000AF03463A60FB710B46BB71BA79BF
:10055C00FB7911461846FFF7D3FF3868FFF77AFF8F
:10056C0000BF0837BD4680BD80B500AF0120FFF746
:10057C0001FE022000F0F4F900BF80BD80B58AB006
:10058C0000AF00F08BF900F045F800F083F808227A
:10059C0000210020FFF776FF1B4A01210120FFF705
:1005AC00CEFF4FF47A7000F0DBF9184A01210220DB
:1005BC00FFF7C5FF00237B6242F220037B6007F14B
:1005CC00080300221A605A609A60DA601A615A6154
:1005DC009A614FF47A7000F0C3F9FFF7C5FF7B6A9C
:1005EC0001337B623B1D7A6A0949184601F03AF8DF
:1005FC003B1D1A4601210120FFF7A1FFC82000F086
:10060C00AFF900BFEBE700BFE81F0008F41F0008BC
:10061C000020000880B590B000AF07F11803282225
:10062C000021184601F040F83B1D00221A605A6068
:10063C009A60DA601A610223BB610123BB6210234A
:10064C00FB6202237B630023BB634FF4C013FB6389
:10065C0007F11803184600F027FC0346002B01D0C5
:10066C0000F056F80F237B600223BB600023FB6075
:10067C0000233B6100237B613B1D0121184600F0E8
:10068C0095FE0346002B01D000F042F800BF403726
:10069C00BD4680BD80B586B000AF07F108030022CF
:1006AC001A605A609A60DA60174B9B69164A43F0DD
:1006BC0020039361144B9B6903F020037B607B68E0
:1006CC00114B9B69104A43F0040393610E4B9B69D9
:1006DC0003F004033B603B680022F6210B4800F05A
:1006EC00CBFBF623BB600123FB6000233B610223A1
:1006FC007B6107F108031946044800F039FA00BF82
:10070C001837BD4680BD00BF0010024000080140F4
:10071C0080B400AF72B600BF00BFFDE780B485B0F7
:10072C0000AF154B9B69144A43F001039361124BC4
:10073C009B6903F00103BB60BB680F4BDB690E4A7E
:10074C0043F08053D3610C4BDB6903F080537B6027
:10075C007B680A4B5B68FB60FB6823F0E063FB6023
:10076C00FB6843F00073FB60044AFB68536000BFF6
:10077C001437BD4680BC7047001002400000014099
:10078C0080B400AF00BFFDE780B400AF00BFFDE751
:10079C0080B400AF00BFFDE780B400AF00BFFDE741
:1007AC0080B400AF00BFFDE780B400AF00BFBD4612
:1007BC0080BC704780B400AF00BFBD4680BC7047A2
:1007CC0080B400AF00BFBD4680BC704780B500AFA1
:1007DC0000F0AAF800BF80BD80B586B000AF78608D
:1007EC00144A154BD31A7B617B693B61134B1B6815
:1007FC00002B02D1114B124A1A60104B1A687B68FD
:10080C0013443A699A4207D200F056FF03460C2271
:10081C001A604FF0FF3309E0084B1B68FB60074B75
:10082C001A687B681344054A1360FB68184618372E
:10083C00BD4680BD00500020000400007800002060
:10084C00C801002080B400AF00BFBD4680BC70471B
:10085C00FFF7F8FF0B480C490C4A002302E0D45870
:10086C00C4500433C4188C42F9D3094A094C0023F0
:10087C0001E013600432A242FBD300F023FFFFF728
:10088C007DFE7047000000205C0000206420000802
:10089C005C000020C8010020FEE7000080B500AF1E
:1008AC00084B1B68074A43F010031360032000F049
:1008BC002BF90F2000F008F8FFF730FF0023184643
:1008CC0080BD00BF0020024080B582B000AF7860D0
:1008DC00124B1A68124B1B7819464FF47A73B3FB00
:1008EC00F1F3B2FBF3F3184600F035F90346002B95
:1008FC0001D001230EE07B680F2B0AD80022796807
:10090C004FF0FF3000F00BF9064A7B6813600023B0
:10091C0000E0012318460837BD4680BD00000020CA
:10092C00080000200400002080B400AF054B1B78A9
:10093C001A46054B1B681344034A136000BFBD469F
:10094C0080BC7047080000207C00002080B400AF01
:10095C00024B1B681846BD4680BC70477C000020CB
:10096C0080B584B000AF7860FFF7F0FFB8607B68AB
:10097C00FB60FB68B3F1FF3F05D00A4B1B781A46AE
:10098C00FB681344FB6000BFFFF7E0FF0246BB6847
:10099C00D31AFA689A42F7D800BF00BF1037BD4689
:1009AC0080BD00BF0800002080B485B000AF786027
:1009BC007B6803F00703FB600C4BDB68BB60BA6819
:1009CC004FF6FF031340BB60FB681A02BB6813436E
:1009DC0043F0BF6343F40033BB60044ABB68D3608D
:1009EC0000BF1437BD4680BC704700BF00ED00E06F
:1009FC0080B400AF044BDB681B0A03F007031846F6
:100A0C00BD4680BC704700BF00ED00E080B483B0F1
:100A1C0000AF03463960FB7197F90730002B0ADBF6
:100A2C003B68DAB20C4997F907301201D2B20B4489
:100A3C0083F800230AE03B68DAB20849FB7903F03B
:100A4C000F03043B1201D2B20B441A7600BF0C37D1
:100A5C00BD4680BC704700BF00E100E000ED00E047
:100A6C0080B489B000AFF860B9607A60FB6803F0BD
:100A7C000703FB61FB69C3F10703042B28BF0423A5
:100A8C00BB61FB690433062B02D9FB69033B00E015
:100A9C0000237B614FF0FF32BB6902FA03F3DA43A8
:100AAC00BB681A407B699A404FF0FF317B6901FAB1
:100ABC0003F3D9437B680B40134318462437BD46D8
:100ACC0080BC704780B582B000AF78607B68013B1A
:100ADC00B3F1807F01D301230FE00A4A7B68013B0D
:100AEC0053600F214FF0FF30FFF790FF054B0022B2
:100AFC009A60044B07221A60002318460837BD463B
:100B0C0080BD00BF10E000E080B582B000AF78601F
:100B1C007868FFF749FF00BF0837BD4680BD80B538
:100B2C0086B000AF0346B9607A60FB7300237B612B
:100B3C00FFF75EFF78617A68B9687869FFF790FF14
:100B4C00024697F90F3011461846FFF75FFF00BFBA
:100B5C001837BD4680BD80B582B000AF786078682C
:100B6C00FFF7B0FF034618460837BD4680BD0000AE
:100B7C0080B48BB000AF7860396000237B620023B7
:100B8C003B6269E101227B6A02FA03F3FB613B6879
:100B9C001B68FA691340BB61BA69FB699A4240F061
:100BAC0058813B685B689A4A93425ED0984A93425C
:100BBC0075D8984A934258D0964A93426FD8964A21
:100BCC00934252D0944A934269D8944A93424CD05F
:100BDC00924A934263D8924A934246D0904A9342A7
:100BEC005DD8122B2AD8122B59D801A252F823F017
:100BFC00770C0008510C0008630C0008A50C0008C9
:100C0C00AB0C0008AB0C0008AB0C0008AB0C0008DC
:100C1C00AB0C0008AB0C0008AB0C0008AB0C0008CC
:100C2C00AB0C0008AB0C0008AB0C0008AB0C0008BC
:100C3C00AB0C0008590C00086D0C0008794A934263
:100C4C0013D02CE03B68DB683B6229E03B68DB6837
:100C5C0004333B6224E03B68DB6808333B621FE0F3
:100C6C003B68DB680C333B621AE03B689B68002BEB
:100C7C0002D104233B6213E03B689B68012B05D136
:100C8C0008233B627B68FA691A6109E008233B621E
:100C9C007B68FA695A6103E000233B6200E000BF05
:100CAC00BB69FF2B01D87B6801E07B6804337B6157
:100CBC00BB69FF2B02D87B6A9B0002E07B6A083B76
:100CCC009B003B617B691A680F213B6901FA03F3B6
:100CDC00DB431A40396A3B6901FA03F31A437B6917
:100CEC001A603B685B6803F08053002B00F0B18006
:100CFC004D4B9B694C4A43F0010393614A4B9B69F2
:100D0C0003F00103BB60BB68484A7B6A9B08023353
:100D1C0052F82330FB607B6A03F003039B000F2225
:100D2C0002FA03F3DB43FA681340FB607B68404A2A
:100D3C00934213D07B683F4A93420DD07B683E4A66
:100D4C00934207D07B683D4A934201D1032306E0CE
:100D5C00042304E0022302E0012300E000237A6A6A
:100D6C0002F0030292009340FA681343FB602F4990
:100D7C007B6A9B080233FA6841F823203B685B6866
:100D8C0003F48013002B06D02D4B9A682C49BB69B9
:100D9C0013438B6006E02A4B9A68BB69DB432849F6
:100DAC0013408B603B685B6803F40013002B06D088
:100DBC00234BDA682249BB691343CB6006E0204B16
:100DCC00DA68BB69DB431E491340CB603B685B6848
:100DDC0003F40033002B06D0194B5A681849BB6931
:100DEC0013434B6006E0164B5A68BB69DB4314494E
:100DFC0013404B603B685B6803F48033002B21D0BD
:100E0C000F4B1A680E49BB6913430B6021E000BFFE
:100E1C0000003210000031100000221000002110E0
:100E2C0000001210000011100010024000000140E0
:100E3C0000080140000C014000100140001401406A
:100E4C00000401400B4B1A68BB69DB430949134092
:100E5C000B607B6A01337B623B681A687B6A22FAFF
:100E6C0003F3002B7FF48EAE00BF00BF2C37BD46C2
:100E7C0080BC70470004014080B483B000AF786040
:100E8C000B467B8013467B707B78002B03D07A88D3
:100E9C007B681A6103E07B881A047B681A6100BFC7
:100EAC000C37BD4680BC704780B586B000AF78600B
:100EBC007B68002B01D1012372E27B681B6803F075
:100ECC000103002B00F08780924B5B6803F00C034E
:100EDC00042B0CD08F4B5B6803F00C03082B12D146
:100EEC008C4B5B6803F48033B3F5803F0BD1894B9B
:100EFC001B6803F40033002B6CD07B685B68002B01
:100F0C0068D101234CE27B685B68B3F5803F06D166
:100F1C00804B1B687F4A43F4803313602EE07B6860
:100F2C005B68002B0CD17B4B1B687A4A23F4803313
:100F3C001360784B1B68774A23F4802313601DE001
:100F4C007B685B68B3F5A02F0CD1724B1B68714AA0
:100F5C0043F4802313606F4B1B686E4A43F4803359
:100F6C0013600BE06B4B1B686A4A23F480331360ED
:100F7C00684B1B68674A23F4802313607B685B68AB
:100F8C00002B13D0FFF7E2FC386108E0FFF7DEFC22
:100F9C0002463B69D31A642B01D9032300E25D4B53
:100FAC001B6803F40033002BF0D014E0FFF7CEFCE9
:100FBC00386108E0FFF7CAFC02463B69D31A642B80
:100FCC0001D90323ECE1534B1B6803F40033002BD2
:100FDC00F0D100E000BF7B681B6803F00203002B1C
:100FEC0063D04C4B5B6803F00C03002B0BD0494BCC
:100FFC005B6803F00C03082B1CD1464B5B6803F4B5
:10100C008033002B16D1434B1B6803F00203002BDB
:10101C0005D07B681B69012B01D00123C0E13D4B3E
:10102C001B6823F0F8027B685B69DB0039491343CA
:10103C000B603AE07B681B69002B20D0364B0122F9
:10104C001A60FFF783FC386108E0FFF77FFC02466B
:10105C003B69D31A022B01D90323A1E12D4B1B6849
:10106C0003F00203002BF0D02A4B1B6823F0F8028C
:10107C007B685B69DB00274913430B6015E0264B4B
:10108C0000221A60FFF762FC386108E0FFF75EFC93
:10109C0002463B69D31A022B01D9032380E11D4B75
:1010AC001B6803F00203002BF0D17B681B6803F074
:1010BC000803002B3AD07B689B69002B19D0174B87
:1010CC0001221A60FFF742FC386108E0FFF73EFC92
:1010DC0002463B69D31A022B01D9032360E10D4B65
:1010EC005B6A03F00203002BF0D0012000F09CFAA5
:1010FC001CE00A4B00221A60FFF728FC38610FE055
:10110C00FFF724FC02463B69D31A022B08D90323B0
:10111C0046E100BF001002400000424280044242FF
:10112C00924B5B6A03F00203002BE9D17B681B68CE
:10113C0003F00403002B00F0A6800023FB758B4BFF
:10114C00DB6903F08053002B0DD1884BDB69874A98
:10115C0043F08053D361854BDB6903F08053BB6054
:10116C00BB680123FB75824B1B6803F48073002B57
:10117C0018D17F4B1B687E4A43F480731360FFF7D2
:10118C00E5FB386108E0FFF7E1FB02463B69D31A47
:10119C00642B01D9032303E1754B1B6803F48073A3
:1011AC00002BF0D07B68DB68012B06D16F4B1B6AE0
:1011BC006E4A43F0010313622DE07B68DB68002B61
:1011CC000CD16A4B1B6A694A23F001031362674B0B
:1011DC001B6A664A23F0040313621CE07B68DB681D
:1011EC00052B0CD1614B1B6A604A43F0040313625C
:1011FC005E4B1B6A5D4A43F0010313620BE05B4BD1
:10120C001B6A5A4A23F001031362584B1B6A574A54
:10121C0023F0040313627B68DB68002B15D0FFF707
:10122C0095FB38610AE0FFF791FB02463B69D31A44
:10123C0041F28832934201D90323B1E04B4B1B6A34
:10124C0003F00203002BEED014E0FFF77FFB3861B4
:10125C000AE0FFF77BFB02463B69D31A41F2883266
:10126C00934201D903239BE0404B1B6A03F002031A
:10127C00002BEED1FB7D012B05D13C4BDB693B4AAE
:10128C0023F08053D3617B68DB69002B00F08780EF
:10129C00364B5B6803F00C03082B61D07B68DB6971
:1012AC00022B46D1334B00221A60FFF74FFB3861FB
:1012BC0008E0FFF74BFB02463B69D31A022B01D91E
:1012CC0003236DE0294B1B6803F00073002BF0D156
:1012DC007B681B6AB3F5803F08D1244B5B6823F411
:1012EC0000327B689B68214913434B601F4B5B6842
:1012FC0023F474127B68196A7B685B6A0B431B4985
:10130C0013434B601B4B01221A60FFF71FFB386124
:10131C0008E0FFF71BFB02463B69D31A022B01D9ED
:10132C0003233DE0114B1B6803F00073002BF0D03E
:10133C0035E0104B00221A60FFF708FB386108E01B
:10134C00FFF704FB02463B69D31A022B01D9032396
:10135C0026E0064B1B6803F00073002BF0D11EE057
:10136C007B68DB69012B07D1012319E000100240D7
:10137C0000700040600042420B4B5B68FB60FB68F6
:10138C0003F480327B681B6A9A4206D1FB6803F433
:10139C0070127B685B6A9A4201D0012300E0002343
:1013AC0018461837BD4680BD0010024080B584B089
:1013BC0000AF786039607B68002B01D10123D0E04D
:1013CC006A4B1B6803F007033A689A4210D9674BC3
:1013DC001B6823F0070265493B6813430B60634BA2
:1013EC001B6803F007033A689A4201D00123B8E066
:1013FC007B681B6803F00203002B20D07B681B6802
:10140C0003F00403002B05D0594B5B68584A43F496
:10141C00E06353607B681B6803F00803002B05D066
:10142C00534B5B68524A43F460535360504B5B68B8
:10143C0023F0F0027B689B684D4913434B607B683B
:10144C001B6803F00103002B40D07B685B68012B09
:10145C0007D1474B1B6803F40033002B15D1012334
:10146C007FE07B685B68022B07D1414B1B6803F064
:10147C000073002B09D1012373E03D4B1B6803F073
:10148C000203002B01D101236BE0394B5B6823F085
:10149C0003027B685B68364913434B60FFF756FACF
:1014AC00F8600AE0FFF752FA0246FB68D31A41F2E1
:1014BC008832934201D9032353E02D4B5B6803F030
:1014CC000C027B685B689B009A42EBD1274B1B6834
:1014DC0003F007033A689A4210D2244B1B6823F09E
:1014EC00070222493B6813430B60204B1B6803F037
:1014FC0007033A689A4201D0012332E07B681B68EB
:10150C0003F00403002B08D0194B5B6823F4E06252
:10151C007B68DB68164913434B607B681B6803F0E0
:10152C000803002B09D0124B5B6823F460527B68D4
:10153C001B69DB000E4913434B6000F021F8024697
:10154C000B4B5B681B0903F00F030A49CB5C22FAB7
:10155C0003F3094A1360094B1B681846FFF7B4F9EB
:10156C00002318461037BD4680BD00BF0020024046
:10157C00001002400420000800000020040000209D
:10158C0080B487B000AF0023FB600023BB60002356
:10159C007B6100237B6000233B611E4B5B68FB601F
:1015AC00FB6803F00C03042B02D0082B03D027E0BC
:1015BC00194B3B6127E0FB689B0C03F00F03174AA8
:1015CC00D35C7B60FB6803F48033002B10D0114B91
:1015DC005B685B0C03F00103114AD35CBB607B6856
:1015EC000D4A03FB02F2BB68B2FBF3F37B6104E030
:1015FC007B680C4A02FB03F37B617B693B6102E075
:10160C00054B3B6100BF3B6918461C37BD4680BC8F
:10161C00704700BF0010024000127A00142000082E
:10162C002420000800093D0080B485B000AF78602C
:10163C000A4B1B680A4AA2FB03235B0A7A6802FB6B
:10164C0003F3FB6000BFFB685A1EFA60002BF9D154
:10165C0000BF00BF1437BD4680BC7047000000209F
:10166C00D34D62100EB46FF0004110B500249DB044
:10167C001FAB02900690079104910948094953F851
:10168C00042B0591006802A901931B9400F092F9B8
:10169C00029B1C701DB0BDE8104003B0704700BF2A
:1016AC000C0000200802FFFF03460244934200D1C5
:1016BC00704703F8011BF9E7014B1868704700BF2E
:1016CC000C00002070B500260C4D0D4C641BA410B2
:1016DC00A64209D100F076FC00260A4D0A4C641B88
:1016EC00A410A64205D170BD55F8043B98470136AD
:1016FC00EEE755F8043B98470136F2E75C2000080A
:10170C005C2000085C2000086020000870477047CF
:10171C0038B50546002940D051F8043C0C1F002B6D
:10172C00B8BFE41800F0DEF81C4A136833B96360E4
:10173C0014602846BDE8384000F0DAB8A34208D956
:10174C00206821188B4201BF19685B680918216059
:10175C00EDE71A465B680BB1A342FAD91168501831
:10176C00A0420BD120680144501883421160E0D193
:10177C0018685B68084410605360DAE702D90C23E0
:10178C002B60D6E7206821188B4201BF19685B6873
:10179C000918216063605460CBE738BDC401002098
:1017AC0070B50F4E0C463168054611B900F0A8FB18
:1017BC0030602146284600F0A3FB431C03D14FF0B8
:1017CC00FF34204670BDC41C24F00304A042F8D0A2
:1017DC00211A284600F094FB0130F2D1EFE700BF4C
:1017EC00C00100202DE9F843CD1C25F00305083578
:1017FC000C2D38BF0C25002D064601DBA94204D95F
:10180C000C2333600020BDE8F883DFF8D48000F0AF
:10181C0069F8D8F800301C4644BB29463046FFF71F
:10182C00BFFF431C044658D1D8F800402746002F70
:10183C0043D1002C4BD023683946304604EB0309C6
:10184C0000F05EFB814542D1216830466D1A294675
:10185C00FFF7A6FF01303AD023682B442360D8F859
:10186C0000305A6862BBC8F800700FE02268521B47
:10187C0020D40B2A17D96119A342256018BF5960CF
:10188C00636808BFC8F8001062514B60304600F026
:10189C002FF804F10B00231D20F00700C21A1CBF07
:1018AC001B1AA350AFE76268A3420CBFC8F8002014
:1018BC005A60EBE723466468AEE73C467F68B6E7C0
:1018CC001A465B68A342FBD100235360DEE70C236E
:1018DC003046336000F00CF894E70560D6E700BFA3
:1018EC00C40100200148FFF711BF00BFBC0100205C
:1018FC000148FFF70CBF00BFBC0100202DE9F047E9
:10190C001F468E688246BE420C4690460B682DD808
:10191C00B1F90C2012F4906F26D06569096905EBBA
:10192C004505A3EB010905EBD5757B1C4B446D10EC
:10193C009D4238BF1D46530527D52946FFF752FF58
:10194C00064660B34A46216900F0F8FAA38923F4ED
:10195C00906343F08003A38126614E4426603E468B
:10196C006561A5EB0905A560BE4200D93E4632462D
:10197C004146206800F0AAFA0020A3689B1BA360D4
:10198C00236833442360BDE8F0872A4600F0E4FA6C
:10199C0006460028E0D150462169FFF7B9FE0C231A
:1019AC00CAF80030A3894FF0FF3043F04003A38105
:1019BC00E9E700002DE9F04F98468B8907461B0696
:1019CC000D4614469DB010D50B6973B94021FFF735
:1019DC0009FF2860286130B90C233B604FF0FF30C1
:1019EC001DB0BDE8F08F40236B61002309932023C9
:1019FC008DF8293030234FF00109CDF80C80DFF839
:101A0C0098818DF82A3023469A4613F8012B0AB197
:101A1C00252AF9D1BAEB040B0BD05B46224629469A
:101A2C003846FFF76BFF013000F0A780099A5A4443
:101A3C0009929AF80030002B00F09F8000234FF0A1
:101A4C00FF32CDE905230AF1010A049307938DF8BF
:101A5C0053301A935446052214F8011B4E4800F0DB
:101A6C005FFA049AD8B9D00644BF20238DF85330BE
:101A7C00110744BF2B238DF853309AF800302A2BD2
:101A8C0015D0544600204FF00A0C079A214611F845
:101A9C00013B303B092B4BD9B0B1079214E0A0EBC2
:101AAC00080309FA03F31343A2460493D2E7039BFA
:101ABC00191D1B680391002BBBBF5B4242F0020255
:101ACC0007930793B8BF049223782E2B0AD163781F
:101ADC002A2B32D1039B02341A1D1B68039243EA52
:101AEC00E3730593DFF8B4A003225046217800F08D
:101AFC0017FA38B14022049BA0EB0A008240134332
:101B0C000134049314F8011B062225488DF8281083
:101B1C0000F006FA002836D0224B1BBB039B073380
:101B2C0023F0070308330393099B334409936AE7B3
:101B3C000C4601200CFB0232A8E700234FF00A0CE4
:101B4C00194601340593204610F8012B303A092A26
:101B5C0003D9002BC6D00591C4E7044601230CFB26
:101B6C000121F0E703AB00932A4638460E4B04A93B
:101B7C00AFF30080421C0646D6D1AB895B063FF51D
:101B8C002DAF09982CE703AB00932A463846064B39
:101B9C0004A900F07DF8EDE7262000082C200008B1
:101BAC003020000800000000091900082DE9F0475A
:101BBC00164698468A680B6907469342B8BF134687
:101BCC00336091F843200C46DDF820900AB10133C4
:101BDC0033602368990642BF33680233336025684B
:101BEC0015F0060506D104F1190AE36832689B1A50
:101BFC00AB422BDC94F843302268003B18BF012326
:101C0C00920630D44146384604F14302C8470130AD
:101C1C0023D02368226903F00603042B14BF00258C
:101C2C0033684FF0000608BFE56804F11A0408BFDA
:101C3C00ED1A54F8123C08BF25EAE5759342C4BF6F
:101C4C009B1AED18B5421AD1002008E00123524628
:101C5C0041463846C847013003D14FF0FF30BDE84C
:101C6C00F0870135C1E73020E11881F843005A1C98
:101C7C0094F845102244023382F84310C2E7012342
:101C8C00224641463846C8470130E6D00136D9E7EE
:101C9C002DE9FF470F7E9146782F80460C469A46D9
:101CAC000C9E01F1430207D8622F0AD8002F00F0D6
:101CBC00D180582F00F0B88004F1420684F84270AD
:101CCC003AE0A7F16303152BF6D801A151F823F0E4
:101CDC00351D0008491D0008C51C0008C51C00085E
:101CEC00C51C0008C51C0008491D0008C51C0008BF
:101CFC00C51C0008C51C0008C51C0008471E0008B0
:101D0C00731D0008011E0008C51C0008C51C000836
:101D1C00691E0008C51C0008731D0008C51C0008BE
:101D2C00C51C0008091E000833681A1D1B683260A8
:101D3C0004F1420684F8423001239CE033682068A9
:101D4C00191D3160060601D51D6803E04506FBD55B
:101D5C00B3F90050002D03DA2D236D4284F8433083
:101D6C000A23584811E021683368080653F8045BCD
:101D7C0002D4490648BFADB26F2F336014BF0A239B
:101D8C0008235048002184F843106668002EA66092
:101D9C0005DB21682E4321F0040121604BD016464F
:101DAC00B5FBF3F103FB1157C75D06F8017D2F4618
:101DBC00BB420D46F4D9082B0BD12368DF0708D59D
:101DCC00236961689942DEBF302306F8013C06F1B5
:101DDC00FF36921B22614B4621464046CDF800A0AF
:101DEC0003AAFFF7E3FE01304AD14FF0FF3004B0F5
:101DFC00BDE8F087236843F020032360782732483E
:101E0C0084F84570236831681F0651F8045B02D4CE
:101E1C005F0648BFADB23160D90744BF43F0200321
:101E2C0023601DB11023ADE72648E9E7236823F0B2
:101E3C0020032360F6E71646BDE733682568181DB6
:101E4C00616930602E061B6801D5196002E06806D6
:101E5C00FBD51980002316462361BCE733680021AB
:101E6C001A1D32601E686268304600F059F808B1DD
:101E7C00801B606063682361002384F84330AAE709
:101E8C003246494640462369D0470130ADD02368DD
:101E9C009B0713D4E068039B9842B8BF1846A6E78B
:101EAC000123324649464046D04701309DD001358A
:101EBC00E36803995B1AAB42F2DCEBE7002504F113
:101ECC001906F5E73720000848200008884210B5AD
:101EDC0001EB020402D98442234607D8431EA142D7
:101EEC0008D011F8012B03F8012FF8E70146024442
:101EFC008A4200D110BD13F8014D02F8014DF7E7ED
:101F0C0038B50023054D044608462B60FEF764FCEB
:101F1C00431C02D12B6803B1236038BDB8010020EB
:101F2C00034610B5C9B202449342184601D10020B1
:101F3C0003E0047801338C42F6D110BD0A4491427F
:101F4C0000F1FF3300D1704710B511F8014B9142ED
:101F5C0003F8014FF9D110BD2DE9F04107461446A5
:101F6C000D4621B91146BDE8F041FFF73BBC2AB93B
:101F7C00FFF7CEFB25462846BDE8F08100F01AF8A5
:101F8C008442064602D8B4EB500FF4D821463846AA
:101F9C00FFF728FC804608B94546ECE7B4422246D8
:101FAC00294628BF3246FFF7C9FF29463846FFF7B6
:101FBC00AFFBF1E751F8043C181F002BBCBF0B58CA
:101FCC00C0187047F8B500BFF8BC08BC9E467047F7
:0C1FDC00F8B500BFF8BC08BC9E4670477A
:101FE8004C434420445249564552000054455354EA
:101FF800204150500000000025640000000000004F
:102008000000000001020304060708090203040592
:10201800060708090A0B0C0D0E0F10100102232DDC
:10202800302B2000686C4C006566674546470030D9
:102038003132333435363738394142434445460026
:102048003031323334353637383961626364656626
:042058000000000084
:04205C003101000846
:042060000D01000866
:1020640000127A001000000001000000100000209F
:102074000000000080000020E80000205001002043
:10208400000000000000000000000000000000004C
:10209400000000000000000000000000000000003C
:1020A400000000000000000000000000000000002C
:0C20B40000000000000000000000000020
:040000050800085D8A
:00000001FF
